:020000040800F2
:1000000028040020A10100084D060008050600088C
:10001000490600089F030008010A000800000000CC
:100020000000000000000000000000009107000830
:10003000A10400080000000065060008A9080008E7
:10004000BB010008BB010008BB010008BB010008A0
:10005000BB010008BB010008BB010008BB01000890
:10006000BB010008BB010008BB010008BB01000880
:10007000BB010008BB010008BB010008BB01000870
:10008000BB010008BB010008BB010008BB01000860
:10009000BB010008BB010008BB010008BB01000850
:1000A000BB010008BB010008BB010008BB01000840
:1000B000BB010008BB010008BB010008BB01000830
:1000C000BB010008BB010008BB010008BB01000820
:1000D000BB010008BB010008BB010008BB01000810
:1000E000BB010008BB010008BB010008BB01000800
:1000F000BB010008BB010008BB010008BB010008F0
:10010000BB010008BB010008BB010008BB010008DF
:10011000BB010008BB010008BB010008BB010008CF
:10012000BB010008BB010008BB010008BB010008BF
:10013000BB010008BB010008BB010008BB010008AF
:10014000BB010008BB010008BB010008BB0100089F
:10015000BB010008BB010008BB010008BB0100088F
:10016000BB010008BB010008BB010008BB0100087F
:10017000BB010008BB010008BB010008BB0100086F
:10018000BB010008BB010008DFF810D000F030F818
:1001900000480047010E0008AFF30080280400204B
:1001A0000648804706480047FEE7FEE7FEE7FEE711
:1001B000FEE7FEE7FEE7FEE7FEE7FEE7AD08000824
:1001C0008901000830B50B46014600202022012499
:1001D00009E021FA02F59D4205D303FA02F5491B15
:1001E00004FA02F52844151EA2F10102F1DC30BD2B
:1001F000064C074D06E0E06840F0010394E8070074
:1002000098471034AC42F6D3FFF7C2FFDC0E00086B
:10021000FC0E000821B1826842F00102826003E016
:10022000826822F001028260704700000021084AC3
:100230001168084A1140D0E900231A4383681A4321
:10024000C3681A431143044AC2F8041370470000FC
:1002500004230140E030FCFF0020014021B182680E
:1002600042F48072826003E0826822F480728260CD
:10027000704721B1826842F40072826003E08268B4
:1002800022F400728260704730B5024600200023DD
:100290005068104C20400D790C6844EA0524204336
:1002A000506090680C4C2040D1E903542C438D6879
:1002B0002C434D7944EA450420439060D06A20F4F1
:1002C00070000C7D641EE4B2234340EA0350D06208
:1002D00030BD0000FFFEFFFCFDF7FFC0F0B5044697
:1002E0000D4600200021092D11DDE068A5F10A0668
:1002F00006EB4607072606FA07F18843A5F10A062A
:1003000006EB460603FA06F10843E0600CE02069BC
:1003100005EB4507072606FA07F1884305EB450676
:1003200003FA06F108432061072A0FDA606B561EB4
:1003300006EB86071F2606FA07F18843561E06EBD2
:10034000860605FA06F10843606322E00D2A0FDAFB
:10035000206BD61F06EB86071F2606FA07F1884397
:10036000D61F06EB860605FA06F10843206310E067
:10037000E06AA2F10D0606EB86071F2606FA07F1D2
:100380008843A2F10D0606EB860605FA06F108433E
:10039000E062F0BD816841F080418160704700BF3C
:1003A000FEE700000246094B9A4201D2084801E0EC
:1003B0000648103801F000531BB1064B0B40C360D8
:1003C00002E0044B0B408360704700001064024061
:1003D000006002407D0F7D0F21B1026842F00102F2
:1003E000026003E0026822F00102026070470146E9
:1003F00000200A6802F001020AB1012000E000209A
:100400007047000030B503460A46002000240B4D1B
:10041000AB4201D20A4901E00849103902F0005507
:100420000DB14C6800E00C68064D2C4004EA020552
:100430000DB1012000E0002030BD0000106402403A
:10044000006002407D0F7D0F10B500220268134B43
:100450001A40CC680B6823434C6923438C692343BF
:10046000CC6923430C6A23434C6A23438C6A23439D
:100470004C6B23438C6B23431A430260426922F086
:100480000702D1E90B3423431A4342610B694360ED
:100490004B6883608B68C36010BD00003F801CF018
:1004A0007047F0B50A4600210023002400BF3DE05C
:1004B000012505FA01F3156805EA03049C4234D1CD
:1004C00005684F000326BE40B543056015794E0010
:1004D000B5400668354305601579012D02D01579C0
:1004E000022D16D185684F000326BE40B5438560B6
:1004F00055794E00B54086683543856045680126CC
:100500008E40B5434560456896798E40B6B2354316
:100510004560C5684F000326BE40B543C560D57928
:100520004E00B540C6683543C560491C1029BFD38D
:10053000F0BDF0B5002300244D07ED0E02FA05F3DF
:10054000CE1000F1200555F826504E07F70E0F2665
:10055000BE40B543CF1000F1200646F82750CE101C
:1005600000F1200555F8265045EA0304CE1000F1AD
:10057000200545F82640F0BD418370470183704750
:1005800010B510491048FFF73DFFD0B10F48018862
:100590000FA000F037FA0D48418810A000F032FAA1
:1005A0000A48818810A000F02DFA0848C18811A0DF
:1005B00000F028FA12A000F025FA02490248FFF7DD
:1005C000F1FE10BD20000010106402400000002069
:1005D000616463363D256420200000006164633758
:1005E0003D25642020000000616463343D256420C3
:1005F00020000000616463353D2564202000000078
:100600000D0A000000BFFEE71CB50121202000F00C
:100610002BF84FF4C060009001208DF804000020FA
:100620008DF8060003208DF8050001208DF80700E5
:1006300069460448FFF735FF4FF4C0610148FFF7F2
:100640009DFF1CBD0014024000BFFEE77047000084
:1006500002490143024A1160704700000000FA0598
:100660000CED00E07047000029B1064A1268024311
:10067000044B1A6004E0034A12688243014B1A607B
:10068000704700003038024029B1064A1268024320
:10069000044B1A6004E0034A12688243014B1A605B
:1006A0007047000044380240F0B5002100220024C9
:1006B000022500260223324F3F6807F00C0121B1CA
:1006C000042905D0082937D105E02E4F076036E010
:1006D0002D4F076033E02A4F3F1F3F68C7F3805616
:1006E000274F3F1F3F6807F03F036EB1264FB7FB10
:1006F000F3F7DFF88CC0ACF1040CDCF800C0CCF3ED
:10070000881C07FB0CF40CE01E4FB7FBF3F7DFF877
:1007100070C0ACF1040CDCF800C0CCF3881C07FB03
:100720000CF4174F3F1F3F68C7F301477F1C7D0044
:10073000B4FBF5F7076002E0124F076000BF00BF8F
:100740000F4F3F6807F0F0010909104F7A5C076806
:10075000D74047600A4F3F6807F4E051890A0B4FC2
:100760007A5C4768D7408760054F3F6807F460416F
:10077000490B064F7A5C4768D740C760F0BD000060
:10078000083802400024F40000127A00140000200F
:10079000704700000CB500200190009034480068BC
:1007A00040F480303249086000BF3148006800F4EE
:1007B000003000900198401C0190009818B90198F1
:1007C000B0F5A04FF1D12A48006800F4003010B114
:1007D0000120009001E0002000900098012846D1FF
:1007E00023484030006840F0805021494031086083
:1007F0002048006840F440401E4908601C4808300A
:1008000000681B49083108600846006840F4004051
:1008100008600846006840F4A05008601648091FA8
:100820000860081F006840F08070091F086000BF62
:100830000F48006800F000700028F9D040F2057001
:100840000E4908600A480830006820F00300084993
:10085000083108600846006840F00200086000BFE8
:1008600003480830006800F00C000828F8D10CBDDF
:10087000003802400070004008544007003C02402D
:10088000042808D14FF0E021096941F004014FF03C
:10089000E022116107E04FF0E021096921F0040135
:1008A0004FF0E022116170477047000010B5154805
:1008B000006840F47000134908601348006840F075
:1008C00001001149086000200F49083108600E48F6
:1008D00000680E4908400C4908600D48091D086071
:1008E000081F006820F48020091F086000200649C6
:1008F0000C310860FFF74EFF4FF00060014980396E
:10090000086010BD88ED00E000380240FFFFF6FEF1
:100910001030002421B1828942F40052828104E027
:1009200082894DF6FF731A40828170472DE9FF4797
:1009300005460E460024A14600BFA046B08900B17E
:1009400000BF2C8A24F44054F08804432C82AC89E4
:1009500041F20C608443B0883189084371890843AF
:100960000443AC81AC8A24F44074B0890443AC8263
:100970006846FFF799FE2048854202D01F4885420D
:1009800002D1DDF80C9001E0DDF80890A88900F4B0
:10099000004040B109EBC90000EB09103168490083
:1009A000B0FBF1F707E009EBC90000EB0910316873
:1009B0008900B0FBF1F76420B7FBF0F004012009D7
:1009C000642101FB1078A88900F4004040B1322076
:1009D00000EBC800B0FBF1F000F00700044308E0B2
:1009E000322000EB08106421B0FBF1F000F00F00A2
:1009F00004432C81BDE8FF87001001400014014032
:100A000000BFFEE70FB4054B10B503A9044A0298D6
:100A100000F018F810BC5DF814FB0000E50D0008AC
:100A20001000002002E008C8121F08C1002AFAD1F5
:100A300070477047002001E001C1121F002AFBD15E
:100A4000704700002DE9FF4F89B09B460446002502
:100A500006E025280BD05A460B999047641C6D1C64
:100A600020780028F5D10DB02846BDE8F08F00278A
:100A7000B8460122474900E0074314F8013F203BF4
:100A800002FA03F00842F7D120782E2819D114F881
:100A9000010F47F004072A280ED06FF02F022078AC
:100AA000A0F1300109290CD808EB880102EB4101C3
:100AB00000EB0108641CF2E70A98641C50F8048BF0
:100AC0000A9020780028CED0642808D0692806D063
:100AD00075281ED05A460B9990476D1C58E00A990C
:100AE0004FF00A0901C90A91002802DA40422D217B
:100AF00002E0390504D52B218DF82010012103E0F7
:100B0000F90704D02021F7E78A4608AE0DE000215E
:100B1000FAE70A994FF00A0901C90A91F7E749462D
:100B2000FFF750FB303106F8011D0028F7D1ADEB7F
:100B3000060000F12009780701D44FF00108C845EC
:100B400002DDA8EB090000E000208046002706E057
:100B500008A85A46C05D0B9990476D1C7F1C5745ED
:100B6000F6DB04E030205A460B9990476D1CB8F133
:100B70000001A8F10108F5DC05E016F8010B5A4662
:100B80000B9990476D1CB9F10001A9F10109F4DC42
:100B9000641C65E70928010000B58DB001210846F5
:100BA000FFF762FD01210420FFF75EFD012108022D
:100BB000FFF76AFD00F07CF803208DF8300010206C
:100BC0000B9000208DF833000BA93648FFF769FC25
:100BD00003208DF8300020200B9000208DF833008A
:100BE0000BA93048FFF75DFC03208DF83000402052
:100BF0000B9000208DF833000BA92B48FFF751FC18
:100C000003208DF8300080200B9000208DF83300F9
:100C10000BA92548FFF745FC0020099007904FF4E9
:100C20008030089000200A9007A8FFF7FFFA002004
:100C3000019001208DF808008DF809000020039034
:100C4000059004208DF8180001A91848FFF71CFB37
:100C500001211648FFF7DEFA072303220E2113486D
:100C6000FFF73CFB072304220F211048FFF736FB58
:100C70000723012206210D48FFF730FB072302223C
:100C800019460A48FFF72AFB0848FFF783FB0121B2
:100C90000648FFF7EEFA01210448FFF7DFFA0DB02E
:100CA00000BD00000008024000000240002001409A
:100CB00000B58FB001218805FFF7D6FC00BF1648AC
:100CC000FFF795FB0028FAD10090144801901448D2
:100CD00002900020039004200490002005904FF41F
:100CE00080600690400007908000089000010A9004
:100CF0004012099000200B9001200C9000200D90D4
:100D00000E9069460448FFF79FFB01210248FFF758
:100D100063FB0FB000BD0000106402404C20014096
:100D20000000002010B504466FF00400FFF7A8FD96
:100D3000E11704EB5171C1F3C701074A1170104666
:100D4000007800EB4001C1EBC0104FF6FF7101EAE3
:100D5000C0000249088010BD080000200A000020E1
:100D600070B504464FF4077094FBF0F0C6B24FF430
:100D7000077094FBF0F100FB114085B205E04FF4E1
:100D8000077000F009F8701EC6B2002EF7D115B139
:100D9000284600F001F870BD0146114A12884A4306
:100DA0004FF0E0235A6100229A611A46126942F01C
:100DB00001021A6100BF4FF0E022106900F0010249
:100DC0001AB100F48032002AF5D04FF0E022126907
:100DD00022F001024FF0E0231A6100229A6170476D
:100DE0000A00002000BF054A128802F04002002AD3
:100DF000F9D0C2B2014B9A80704700000010014048
:100E00004FF4A060FFF724FCA820FFF78BFF4FF4FE
:100E1000E13000F021F8FFF7F7FB0CA0FFF7F2FD3F
:100E2000FFF7BAFE11E04FF4C0610A48FFF7A6FBD6
:100E3000C820FFF795FF4FF4C0610648FFF79CFB01
:100E4000C820FFF78DFFFFF79BFBECE74553540DE0
:100E50000A0000000014024010B586B004460121CB
:100E60000846FFF701FC01211020FFF70DFC0722C7
:100E700009211848FFF75DFB07220A211548FFF7F3
:100E800058FB4FF4C060049002208DF814008DF8D8
:100E9000150000208DF8160001208DF8170004A918
:100EA0000C48FFF7FEFA00940020ADF80400ADF8FE
:100EB0000600ADF80800ADF80C000C20ADF80A00F3
:100EC00069460548FFF732FD01210348FFF722FD7F
:100ED00006B010BD0000024000100140FC0E0008EA
:100EE0000000002024000000240A0008200F000851
:100EF0002400002004040000340A00080000000060
:100F000000000000000000000000000000000000E1
:100F1000000000000102030401020304060708099F
:040000050800018965
:00000001FF
